:100000000C94A4000C94CC000C94CC000C94CC0068
:100010000C94CC000C94CC000C94CC000C94CC0030
:100020000C94CC000C94CC000C94CC000C94BC052B
:100030000C94CC000C94CC000C94CC000C94CC0010
:100040000C94840C0C94CC000C94CC000C94CC003C
:100050000C94CC000C94CC000C94CC000C94CC00F0
:100060000C94570B0C94CC0007634236B79BD8A76F
:100070001A39685618AEBAAB558C1D3CB7CC5763CD
:10008000BD6DEDFD753EF6177231BF000000803F7B
:1000900008000000BE922449123EABAAAA2ABECD97
:1000A000CCCC4C3E00000080BEABAAAAAA3E000009
:1000B0000000BF000000803F000000000008417801
:1000C000D3BB4387D1133D190E3CC3BD4282AD2B38
:1000D0003E68EC8276BED98FE1A93E4C80EFFFBE30
:1000E00001C4FF7F3F000000000000000008000284
:1000F00001000003040700000000000000000102EE
:1001000004081020408001020408102001020408A5
:100110001020040404040404040402020202020283
:10012000030303030303000000002300260029004B
:1001300000000000250028002B0000000000240023
:1001400027002A00A4056D0A11241FBECFEFD8E0B6
:10015000DEBFCDBF11E0A0E0B1E0EAEEF4E202C004
:1001600005900D92A632B107D9F723E0A6E2B1E0DF
:1001700001C01D92AE36B207E1F711E0C8E4D1E04C
:1001800004C02297FE010E946012C434D107C9F74F
:100190000E946F0E0C9473120C9400000F931F9327
:1001A000CF93DF9360E0809114010E948F0D60E097
:1001B000809110010E948F0D60E0809106010E94E5
:1001C0008F0D60E080910E010E948F0D60E08091A4
:1001D0000C010E948F0D60E080910A010E948F0D3A
:1001E00060E0809108010E948F0D61E08091120112
:1001F0000E948F0D63E070E08CE792E00E9412078E
:1002000065E070E089E792E00E94120766E070E026
:1002100086E792E00E94120760E070E08CE792E0CF
:100220000E944B0764E670E080E090E00E94F10CD1
:1002300086E291E00E943008811101C0FFCF03E700
:1002400011E0C0E0D0E0BE01882777FD8095982FAF
:100250000E947A0F20E030E04FE753E40E94E40E62
:1002600020E030E040E250E40E94911020E030E0D5
:100270004FE753E40E942E109B01AC0160E070E058
:100280008FE793E40E947F0E0E944C0FF801619368
:100290008F012196C115F1E0DF07A9F6DF91CF911B
:1002A0001F910F9108954F925F926F927F928F925C
:1002B0009F92AF92BF92CF92DF92EF92FF920F93F5
:1002C0001F93CF93DF93CDB7DEB728970FB6F8947F
:1002D000DEBF0FBECDBF60E086E291E00E948808DD
:1002E0006CE370E080E090E00E94F10C8E01095F09
:1002F0001F4F9E012F5F3F4FAE014D5F5F4FBE010D
:100300006B5F7F4F86E291E00E94CE0861E086E25B
:1003100091E00E9488086F817885ED80FE80AB8037
:10032000BC8009811A8110922C0110922B018091BE
:100330000401909105016817790708F4AFC080E0C7
:1003400090E00E94780F2B013C01B70180E090E023
:100350000E94780FA30192010E94E40E20E030E099
:1003600040E853E40E942E106B017C01B50180E04F
:1003700090E00E94780FA30192010E94E40E20E019
:1003800030E040E853E40E942E104B015C01B801BC
:1003900080E090E00E94780FA30192010E94E40E99
:1003A00020E030E040E853E40E942E102B013C0195
:1003B000A5019401C701B6010E942A101816ECF499
:1003C000A3019201C701B6010E942A101816ACF4CD
:1003D0008AE090E0909372018093710181E090E057
:1003E000909346018093450110924401109243017D
:1003F00010924201109241014DC0A7019601C50122
:10040000B4010E942A101816FCF4A3019201C50140
:10041000B4010E942A101816BCF48AE590E090936B
:100420007201809371011092460110924501109261
:1004300044011092430181E090E090934201809347
:10044000410182E090E026C0A7019601C301B201FC
:100450000E942A10181614F5A5019401C301B201D7
:100460000E942A101816D4F484EB90E09093720145
:1004700080937101109246011092450181E090E055
:1004800090934401809343011092420110924101E4
:1004900083E090E090932C0180932B0110927001E7
:1004A00010926F0110926E0110926D0110926C010A
:1004B00010926B01109232011092310180916F0104
:1004C00090917001892B09F059C0809114010E940C
:1004D000FE0D8C0190932E0180932D0181309105AA
:1004E00009F041C060914501809112010E94C80D40
:1004F00062E370E080E090E00E94F10C80911001D6
:100500000E94FE0D90936A018093690180910E0113
:100510000E94FE0D909368018093670180910C0109
:100520000E94FE0D909366018093650180910A01FF
:100530000E94FE0D909364018093630180910801F5
:100540000E94FE0D909362018093610180910601EB
:100550000E94FE0D9093600180935F0110937001E3
:1005600000936F01ABCF62E370E080E090E00E9407
:10057000F10C1092700110926F01A0CF01E010E019
:1005800080916D0190916E01892B09F0A4C080913A
:1005900014010E94FE0D90932E0180932D01892B52
:1005A00009F041C060914101809112010E94C80D83
:1005B00062E370E080E090E00E94F10C8091100115
:1005C0000E94FE0D90935E0180935D0180910E016B
:1005D0000E94FE0D90935C0180935B0180910C0161
:1005E0000E94FE0D90935A018093590180910A0157
:1005F0000E94FE0D9093580180935701809108014D
:100600000E94FE0D90935601809355018091060142
:100610000E94FE0D909354018093530110936E013C
:1006200000936D01ADCF62E370E080E090E00E9446
:10063000F10C10926E0110926D01A2CF8091140105
:100640000E94FE0D8C0190932E0180932D0181302C
:10065000910509F048C060914501809112010E9406
:10066000C80D62E370E080E090E00E94F10C8091A0
:1006700010010E94FE0D90935201809351018091D0
:100680000E010E94FE0D9093500180934F018091C6
:100690000C010E94FE0D90934E0180934D018091BC
:1006A0000A010E94FE0D90934C0180934B018091B2
:1006B00008010E94FE0D90934A01809349018091A8
:1006C00006010E94FE0D909348018093470110930C
:1006D0006C0100936B0180916B0190916C01892BEF
:1006E00009F4ACCF0BC062E370E080E090E00E94C0
:1006F000F10C10926C0110926B01EDCF109234014D
:10070000109233018091690190916A01009731F54F
:100710002091670130916801232B01F5209165013B
:1007200030916601232BD1F4209163013091640153
:10073000232BA1F42091610130916201232B71F4EC
:1007400020915F01309160012130310539F0209115
:100750002B0130912C0121303105A9F520915D014B
:1007600030915E01232B31F520915B0130915C01CA
:10077000232B01F52091590130915A01232BD1F4FB
:100780002091570130915801232BA1F4209155015C
:1007900030915601232B71F4209153013091540173
:1007A0002130310539F020912B0130912C0122307C
:1007B000310539F481E090E0909334018093330166
:1007C0007EC0892B21F58091670190916801892B6A
:1007D000F1F48091650190916601892BC1F48091BB
:1007E000630190916401892B91F480916101909152
:1007F0006201892B61F480915F0190916001019702
:1008000031F080912B0190912C01019771F580912D
:10081000510190915201892B69F680914F0190917D
:100820005001892B39F680914D0190914E01892B11
:1008300009F680914B0190914C01892B09F0BACFB8
:100840008091490190914A01892B09F0B3CF8091A1
:10085000470190914801019709F4ACCF80912B0199
:1008600090912C01039709F4A5CF809151019091AB
:100870005201892B41F580914F0190915001892BB4
:1008800011F580914D0190914E01892BE1F48091F9
:100890004B0190914C01892BB1F4809149019091C9
:1008A0004A01892B81F48091470190914801019779
:1008B00051F080912B0190912C01039721F0EE24AF
:1008C000E394F12CA3C080915D0190915E01892B8E
:1008D00009F070CF80915B0190915C01892B09F048
:1008E00069CF8091590190915A01892B09F062CF0B
:1008F0008091570190915801892B09F05BCF80912D
:10090000550190915601892B09F054CF80915301E4
:1009100090915401019709F44DCF80912B01909152
:100920002C01029761F646CF809114010E94FE0DC2
:100930008C0190932E0180932D018130910509F057
:1009400072C060913301809112010E94C80D62E370
:1009500070E080E090E00E94F10C809110010E9414
:10096000FE0D9093400180933F0180910E010E9403
:10097000FE0D90933E0180933D0180910C010E94F9
:10098000FE0D90933C0180933B0180910A010E94EF
:10099000FE0D90933A0180933901809108010E94E5
:1009A000FE0D9093380180933701809106010E94DB
:1009B000FE0D909336018093350110933201009320
:1009C000310120913F01309140012130310531F159
:1009D00020913D0130913E0121303105F9F0209107
:1009E0003B0130913C0121303105C1F020913901AA
:1009F00030913A012130310589F020913701309151
:100A000038012130310551F0019741F080913101D9
:100A100090913201019709F487CF10C0F092300114
:100A2000E0922F01F3CF62E370E080E090E00E945B
:100A3000F10C1092320110923101E8CF2F813885EC
:100A400080910401909105012817390708F45FC0CF
:100A5000809133019091340181309105A9F5609125
:100A60007101709172016B3571059CF06A557109C5
:100A7000709372016093710189E792E00E944B07C5
:100A800068EC70E080E090E00E94F10C60E070E0C3
:100A900012C0665A7F4F709372016093710189E7AB
:100AA00092E00E944B0768EC70E080E090E00E94CA
:100AB000F10C64EB70E086E792E00E944B0764EF74
:100AC00071E080E090E01AC0892B09F56091710116
:100AD0007091720189E792E00E944B0768EC70E028
:100AE00080E090E00E94F10C64EB70E086E792E019
:100AF0000E944B076CE271E080E090E00E94F10CF4
:100B00006AE570E086E792E00E944B0706C062E368
:100B100070E080E090E00E94F10C28960FB6F89407
:100B2000DEBF0FBECDBFDF91CF911F910F91FF9020
:100B3000EF90DF90CF90BF90AF909F908F907F907D
:100B40006F905F904F9008958CE792E00E94780636
:100B500089E792E00E94780686E792E00E94780694
:100B600083E792E00E94780641E050E06BEE70E08F
:100B700086E291E00C9408081F920F920FB60F9234
:100B800011242F933F934F935F936F937F938F9392
:100B90009F93AF93BF93EF93FF938091800287FF62
:100BA00005C010928500109284001AC02091800226
:100BB000332727FD309580917F0290E02817390771
:100BC0007CF480918002992787FD9095FC01EE0FBF
:100BD000FF1FE80FF91FEF57FD4F808186FD15C0FD
:100BE000809180028F5F8093800220918002332762
:100BF00027FD309580917F0290E028173907BCF4DB
:100C0000809180028C305CF112C080918002992723
:100C100087FD9095FC01EE0FFF1FE80FF91FEF57BE
:100C2000FD4F808160E08F730E94C80DD9CF809105
:100C3000840090918500049680349C4918F480E4E7
:100C40009CE905C080918400909185000496909362
:100C50008900809388008FEF8093800238C02091B4
:100C600084003091850080918002992787FD9095BE
:100C7000FC01EE0FFF1FE80FF91FEF57FD4F8181B9
:100C80009281820F931F90938900809388008091B6
:100C90008002992787FD9095FC01EE0FFF1FE80F5A
:100CA000F91FEF57FD4F808186FF11C080918002B0
:100CB000992787FD9095FC01EE0FFF1FE80FF91FA4
:100CC000EF57FD4F808161E08F730E94C80DFF9147
:100CD000EF91BF91AF919F918F917F916F915F91B4
:100CE0004F913F912F910F900FBE0F901F9018952D
:100CF00020917F022C30A0F431E0320F30937F023C
:100D0000FC012083822F90E0FC01EE0FFF1FE80F13
:100D1000F91FEF57FD4F88EB9BE092838183089585
:100D20002FEFFC0120830895DF92EF92FF920F9343
:100D30001F93CF93DF93EC01D62E7A01890188812E
:100D40008C3008F066C061E08D2D0E948F0D888187
:100D5000A82FB0E0FD01EE0FFF1FEA0FFB1FEF57BA
:100D6000FD4F2D2D2F739081907C922B908360E20C
:100D700072E06E197F0977FF02C06D5F7F4F759536
:100D8000679575956795698340E659E0401B510B5F
:100D900057FF02C04D5F5F4F559547955595479555
:100DA0004A836CE00E9406129CE0899FB0011124E6
:100DB00020E030E0A901460F571FFA01EE0FFF1F98
:100DC000E40FF51FEF57FD4F908196FD16C02F5F82
:100DD0003F4F2C30310571F781110FC01092800008
:100DE00082E0809381001092850010928400B19A75
:100DF00080916F00826080936F00888190E0FC0199
:100E0000EE0FFF1FE80FF91FEF57FD4F8081806441
:100E100080838881DF91CF911F910F91FF90EF9098
:100E2000DF90089520E639E040E252E00C94940609
:100E3000FC0180818C3070F5918128E830E0291B1D
:100E4000310997FD3395220F331F220F331F62178D
:100E500073077CF0928128E532E0291B310997FD68
:100E60003395220F331F220F331F621773070CF4C1
:100E70009B0122503109220F331F4FB7F89490E0A5
:100E8000FC01EE0FFF1FE80FF91FEF57FD4F3283F4
:100E900021834FBF08954F925F926F927F92AF92DE
:100EA000BF92CF92DF92EF92FF920F931F93CF9357
:100EB000DF93EC01603282E078070CF040C077FDF0
:100EC00006C0653B71052CF064EB70E002C060E089
:100ED00070E0898128E830E0281B310987FD3395CF
:100EE000220F331F220F331F5901CC24B7FCC094AB
:100EF000DC2C882777FD8095982F2A8148E552E0E1
:100F0000421B510927FD5395440F551F440F551F90
:100F10002A01662457FC6094762C7F926F925F9230
:100F20004F9214EBE12EF12C00E010E020E030E0D5
:100F3000A9010E94270E0F900F900F900F90CE01E5
:100F4000DF91CF911F910F91FF90EF90DF90CF90A5
:100F5000BF90AF907F906F905F904F900C94180768
:100F6000DC01ED91FC910190F081E02D09941F933B
:100F7000CF93DF9300D000D0CDB7DEB7162F69E254
:100F800070E085EA92E029833A834B835C830E9478
:100F9000F1091068612F70E085EA92E00E94B007C5
:100FA000E091A502F091A60229813A814B815C81F2
:100FB000CA01B9017727882799270190F081E02D90
:100FC00085EA92E0099585EA92E00F900F900F90E4
:100FD0000F90DF91CF911F910C946A0ACF93DF930A
:100FE000EC0121E030E040E050E060E00E94B70713
:100FF00063E070E080E090E00E94F10C23E030E0DC
:1010000040E050E060E0CE01DF91CF910C94B70753
:10101000FC01108274836383528341830895CF93CC
:10102000C62F69E270E085EA92E00E94F109C0688B
:101030006C2F70E085EA92E00E94B00785EA92E0AA
:101040000E946A0A41E050E069E270E085EA92E0BD
:101050000E94670A85EA92E00E944E09CF910895A6
:10106000CF93DF93EC0185EA92E00E94DD0962E113
:10107000CE010E940F08843411F0803189F481E0A0
:1010800088836B817C81CE010E94540869817A81BA
:10109000CE010E946E08CE010E94EE0781E001C0E1
:1010A00080E0DF91CF9108950F931F93CF93DF934B
:1010B000EC018B018881811103C0CE010E943008B0
:1010C000980140E050E061E0CE010E94B7071C8328
:1010D0000B83DF91CF911F910F9108950F931F9371
:1010E000CF93DF93EC018B018881811103C0CE0186
:1010F0000E943008980140E050E06FE0CE010E946D
:10110000B7071A830983DF91CF911F910F9108953B
:101110001F93CF93DF93EC01162F60E00E940F081E
:10112000282F112311F0206101C02F7E30E040E014
:1011300050E060E0CE01DF91CF911F910C94B70792
:10114000CF93DF93C62F69E270E085EA92E00E94B8
:10115000F109C0686C2F70E085EA92E00E94B00748
:1011600085EA92E00E946A0A42E050E069E270E09B
:1011700085EA92E00E94670A85EA92E00E944E09A1
:10118000EC0185EA92E00E944E0920E030E0382F21
:10119000C9018C2B9D2BDF91CF910895AF92BF9207
:1011A000CF92DF92EF92FF920F931F93CF93DF9333
:1011B000EC017B015A0169018881811103C0CE01D4
:1011C0000E94300864E1CE010E94A008F8019183DA
:1011D000808366E1CE010E94A008F701918380839D
:1011E00068E1CE010E94A008F501918380836AE145
:1011F000CE010E94A008F601918380838B819C819F
:10120000853D910519F154F4009729F1803C910531
:1012100091F56AE970E080E090E021C0863F910599
:1012200081F08F3F910541F08B3E910521F562E3FE
:1012300070E080E090E013C063E070E080E090E058
:101240000EC068E170E080E090E009C065E670E003
:1012500080E090E004C06CEB72E080E090E0DF9111
:10126000CF911F910F91FF90EF90DF90CF90BF90A3
:10127000AF900C94F10CDF91CF911F910F91FF90E3
:10128000EF90DF90CF90BF90AF9008958091D502FE
:1012900090E02091D602821B910908952091D602F8
:1012A0008091D502281750F4E22FF0E0E952FD4F6B
:1012B000808190E02F5F2093D60208958FEF9FEFFB
:1012C0000895E091D6028091D502E81730F4F0E05D
:1012D000E952FD4F808190E008958FEF9FEF0895D0
:1012E0000895CF92DF92EF92FF920F931F93CF93C7
:1012F000DF937C01CB018A012091B102222389F086
:10130000EB016B01C40ED51ECC15DD0569F06991AA
:10131000D701ED91FC910190F081E02DC701099575
:10132000F3CF642F0E942E0BC801DF91CF911F9144
:101330000F91FF90EF90DF90CF900895CF93DF93C0
:101340001F92CDB7DEB769832091B1022223D1F07D
:101350002091B202203240F021E030E0FC013383E2
:10136000228380E090E015C08091B302E82FF0E086
:10137000EC54FD4F998190838F5F8093B3028093EB
:10138000B20205C061E0CE0101960E942E0B81E001
:1013900090E00F90DF91CF910895FC0113821282AB
:1013A00048EE53E060E070E04483558366837783C2
:1013B0008AE191E09183808308951092D602109281
:1013C000D5021092B3021092B2020C94710A81E01D
:1013D0008093B1026093D4021092B3021092B202D1
:1013E00008950C94E7090F93062F21E04091B20273
:1013F00064EB72E08091D4020E94D70A1092B3028B
:101400001092B2021092B1020F9108958F929F92A2
:10141000AF92BF92CF92DF92EF92FF920F931F9302
:10142000CF93DF93EC01F62ED42E48015901EE2024
:1014300019F10E94E7091E2D143008F013E0115035
:10144000B8F0E881F98128E0129FB0011124A501CC
:10145000940104C056954795379527956A95D2F71C
:10146000CA01B9010190F081E02DCE010995E7CFC5
:1014700060E0CE010E94F3094D2D413208F040E2B8
:101480002C2D67ED72E08F2D0E948F0A1092D602EC
:101490008093D502DF91CF911F910F91FF90EF9034
:1014A000DF90CF90BF90AF909F908F900895CF9294
:1014B000EF920F931F93C22EE12C00E010E09801F1
:1014C0000E94060A1F910F91EF90CF90089521E09E
:1014D0000C94570A61E00C94F30985EA92E00C94AD
:1014E000CD091092640381E080936203109261033E
:1014F00061E082E10E94C80D61E083E10E94C80DB5
:10150000E9EBF0E080818E7F808380818D7F808316
:1015100088E48093B80085E48093BC00089541324C
:1015200008F043C0909164039111FCCF91E0909337
:101530006403209362032FEF2093F70210923C0381
:10154000240F20933B039093630390916303880FD0
:10155000892B8093630380916103813061F4109241
:101560006103809163038093BB008091BC0083FD85
:10157000F8CF85EC01C085EE8093BC0080916403B8
:101580008130E1F380913C03841710F440913C03D7
:101590002DE333E0FB01D9018A2F821B841718F455
:1015A0008D918193F9CF842F089580E008950F9352
:1015B000413208F04AC0909164039111FCCF92E04F
:1015C00090936403009362039FEF9093F70210924D
:1015D0003C0340933B03FB016DE373E0DB019A2F77
:1015E000961B941718F491919D93F9CF1092630371
:1015F00090916303880F892B80936303809161032B
:10160000813061F410926103809163038093BB0089
:101610008091BC0083FDF8CF85EC01C085EE8093FE
:10162000BC00222321F0809164038230E1F3809199
:10163000F7028F3F61F08091F702803251F0809184
:10164000F702803341F483E007C081E005C080E009
:1016500003C082E001C084E00F910895613298F4E4
:1016600020916403243089F460931903FC018BE119
:1016700093E0DC012A2F281B261718F421912D93C3
:10168000F9CF80E0089581E0089582E0089585ED26
:101690008093BC008091BC0084FDFCCF1092640359
:1016A000089585EC8093BC001092640308951F9206
:1016B0000F920FB60F9211242F933F934F935F9386
:1016C0006F937F938F939F93AF93BF93EF93FF930A
:1016D0008091B900887F803609F49EC078F5883201
:1016E00009F45DC090F4803109F456C038F48823C1
:1016F00009F4F5C0883009F44FC0F5C0883109F409
:101700004EC0803209F45FC0EEC0803409F46AC074
:1017100058F4803309F457C0883309F0E4C080934B
:10172000F7020E94510BDFC0803509F44FC08835A5
:1017300009F45DC0883409F0D6C0D3C0883909F4F3
:10174000C4C0A8F4883709F467C038F4883609F4AF
:1017500063C0803709F460C0C6C0883809F4B5C0DA
:10176000803909F45FC0803809F0BDC05BC0803BA0
:1017700009F483C038F4803A09F466C0883A09F461
:101780007CC0B1C0803C09F4A4C0883C09F4A1C06D
:10179000883B09F487C0A7C08091630310C0909173
:1017A0003C0380913B03981770F5E0913C0381E086
:1017B0008E0F80933C03F0E0E35CFC4F80818093CC
:1017C000BB0085EC83C08093F7028BC0E0913C03A3
:1017D00081E08E0F80933C038091BB00F0E0E35CDE
:1017E000FC4F808390913C0380913B036BC0E09160
:1017F0003C0381E08E0F80933C038091BB00F0E0BE
:10180000E35CFC4F80838091620381116AC081E0B8
:101810008093610384EA5EC083E080936403109246
:10182000F802CFCF8091F802803208F04EC0E091EC
:10183000F80281E08E0F8093F8028091BB00F0E007
:10184000E750FD4F8083BDCF0E94510B8091F8027D
:10185000803230F4E091F802F0E0E750FD4F108262
:101860006091F80270E0E0915D03F0915E0389EF12
:1018700092E009951092F80236C084E080936403E8
:1018800010921A0310921903E0915F03F091600324
:10189000099580911903811105C081E08093190396
:1018A00010921B03E0911A0381E08E0F80931A03BC
:1018B000F0E0E55EFC4F80818093BB0090911A03BD
:1018C00080911903981708F47CCF85E88093BC00B9
:1018D0000AC085EC8093BC001092640304C010928F
:1018E000F7020E94470BFF91EF91BF91AF919F913B
:1018F0008F917F916F915F914F913F912F910F90B9
:101900000FBE0F901F9018951F920F920FB60F9257
:1019100011242F933F938F939F93AF93BF93809105
:10192000660390916703A0916803B09169033091B9
:10193000650323E0230F2D3720F40196A11DB11D6F
:1019400005C026E8230F0296A11DB11D2093650353
:101950008093660390936703A0936803B093690331
:1019600080916A0390916B03A0916C03B0916D0319
:101970000196A11DB11D80936A0390936B03A09300
:101980006C03B0936D03BF91AF919F918F913F9185
:101990002F910F900FBE0F901F9018953FB7F8949E
:1019A00080916A0390916B03A0916C03B0916D03D9
:1019B00026B5A89B05C02F3F19F00196A11DB11DAA
:1019C0003FBF6627782F892F9A2F620F711D811DC7
:1019D000911D42E0660F771F881F991F4A95D1F726
:1019E00008958F929F92AF92BF92CF92DF92EF9223
:1019F000FF926B017C010E94CE0C4B015C01C11473
:101A0000D104E104F104F1F00E947E0E0E94CE0C9C
:101A1000681979098A099B09683E73408105910517
:101A200070F321E0C21AD108E108F10888EE880EAF
:101A300083E0981EA11CB11CC114D104E104F1047F
:101A400029F7DDCFFF90EF90DF90CF90BF90AF9060
:101A50009F908F900895789484B5826084BD84B5FA
:101A6000816084BD85B5826085BD85B5816085BD99
:101A7000EEE6F0E0808181608083E1E8F0E01082B2
:101A8000808182608083808181608083E0E8F0E0F3
:101A9000808181608083E1EBF0E0808184608083DD
:101AA000E0EBF0E0808181608083EAE7F0E0808114
:101AB0008460808380818260808380818160808374
:101AC0008081806880831092C1000895833081F006
:101AD00028F4813099F08230A1F008958730A9F080
:101AE0008830B9F08430D1F4809180008F7D03C0BC
:101AF000809180008F7780938000089584B58F77E0
:101B000002C084B58F7D84BD08958091B0008F7729
:101B100003C08091B0008F7D8093B0000895CF9373
:101B2000DF9390E0FC01E250FF4F2491FC01EE5E58
:101B3000FE4F8491882349F190E0880F991FFC01A2
:101B4000E65CFE4FA591B491805D9E4FFC01C5916E
:101B5000D4919FB7611108C0F8948C91209582238D
:101B60008C93888182230AC0623051F4F8948C915E
:101B7000322F309583238C938881822B888304C0F5
:101B8000F8948C91822B8C939FBFDF91CF91089515
:101B90000F931F93CF93DF931F92CDB7DEB7282FFC
:101BA00030E0F901E651FF4F8491F901E250FF4F17
:101BB0001491F901EE5EFE4F04910023C9F08823D1
:101BC00021F069830E94660D6981E02FF0E0EE0F3D
:101BD000FF1FE05DFE4FA591B4919FB7F8948C91E3
:101BE000611103C01095812301C0812B8C939FBF8D
:101BF0000F90DF91CF911F910F910895CF93DF93B5
:101C0000282F30E0F901E651FF4F8491F901E250AD
:101C1000FF4FD491F901EE5EFE4FC491CC2391F0B9
:101C200081110E94660DEC2FF0E0EE0FFF1FEA5DC0
:101C3000FE4FA591B4912C912D2381E090E021F4E9
:101C400080E002C080E090E0DF91CF9108954F9254
:101C50005F926F927F92AF92BF92CF92DF92EF929C
:101C6000FF920F931F93CF93DF93CDB7DEB7290178
:101C70003A01621B730B840B950B29893A894B89B6
:101C80005C892A193B094C095D09298B3A8B4B8BDE
:101C90005C8B9B01AC0169897A898B899C890E9444
:101CA000F611E418F50806091709A80197010E9422
:101CB00034122A0D3B1D4C1D5D1DCA01B901DF9177
:101CC000CF911F910F91FF90EF90DF90CF90BF9039
:101CD000AF907F906F905F904F90089508950E940D
:101CE0002B0D0E946E0E0E94CE00C0E0D0E00E943C
:101CF00053012097E1F30E940000F9CF0895505856
:101D0000BB27AA270ED06CC15DD130F062D120F084
:101D100031F49F3F11F41EF452C10EF4E095E7FB3D
:101D200048C1E92F6ED180F3BA17620773078407A1
:101D3000950718F071F49EF586C10EF4E0950B2E10
:101D4000BA2FA02D0B01B90190010C01CA01A0010D
:101D50001124FF27591B99F0593F50F4503E68F168
:101D60001A16F040A22F232F342F4427585FF3CFA9
:101D7000469537952795A795F0405395C9F77EF47A
:101D80001F16BA0B620B730B840BBAF09150A1F0C3
:101D9000FF0FBB1F661F771F881FC2F70EC0BA0F49
:101DA000621F731F841F48F4879577956795B795D1
:101DB000F7959E3F08F0B3CF9395880F08F09927C9
:101DC000EE0F9795879508950CD00AC102D140F087
:101DD000F9D030F021F45F3F19F0EBC0511134C15C
:101DE000EEC00FD198F39923C9F35523B1F3951B96
:101DF000550BBB27AA2762177307840738F09F5F2C
:101E00005F4F220F331F441FAA1FA9F333D00E2E9A
:101E10003AF0E0E830D091505040E695001CCAF707
:101E200029D0FE2F27D0660F771F881FBB1F2617CC
:101E300037074807AB07B0E809F0BB0B802DBF019F
:101E4000FF2793585F4F2AF09E3F510568F0B1C0BD
:101E5000FBC05F3FECF3983EDCF386957795679582
:101E6000B795F7959F5FC9F7880F911D9695879550
:101E700097F90895E1E0660F771F881FBB1F62176F
:101E800073078407BA0720F0621B730B840BBA0B2D
:101E9000EE1F88F7E0950895BCD088F09F5790F02A
:101EA000B92F9927B751A0F0D1F0660F771F881F7F
:101EB000991F1AF0BA95C9F712C0B13081F0C3D09A
:101EC000B1E00895C0C0672F782F8827B85F39F038
:101ED000B93FCCF3869577956795B395D9F73EF4DE
:101EE00090958095709561957F4F8F4F9F4F089586
:101EF000E89409C097FB3EF49095809570956195A4
:101F00007F4F8F4F9F4F9923A9F0F92F96E9BB2759
:101F10009395F695879577956795B795F111F8CFD5
:101F2000FAF4BB0F11F460FF1BC06F5F7F4F8F4F40
:101F30009F4F16C0882311F096E911C0772321F036
:101F40009EE8872F762F05C0662371F096E8862FCE
:101F500070E060E02AF09A95660F771F881FDAF725
:101F6000880F9695879597F90895990F0008550F52
:101F7000AA0BE0E8FEEF16161706E807F907C0F00F
:101F800012161306E407F50798F0621B730B840B17
:101F9000950B39F40A2661F0232B242B252B21F4F1
:101FA00008950A2609F4A140A6958FEF811D811D91
:101FB000089597F99F6780E870E060E008959FEFCB
:101FC00080EC089500240A941616170618060906D0
:101FD000089500240A94121613061406050608959F
:101FE000092E0394000C11F4882352F0BB0F40F427
:101FF000BF2B11F460FF04C06F5F7F4F8F4F9F4F67
:10200000089557FD9058440F551F59F05F3F71F0E8
:102010004795880F97FB991F61F09F3F79F087954F
:102020000895121613061406551FF2CF4695F1DFD8
:1020300008C0161617061806991FF1CF8695710568
:10204000610508940895E894BB2766277727CB019C
:1020500097F908958ADF08F48FEF08950BD0C0CF69
:10206000B1DF28F0B6DF18F0952309F0A2CFA7CF93
:102070001124EACFC6DFA0F3959FD1F3950F50E06E
:10208000551F629FF001729FBB27F00DB11D639F2A
:10209000AA27F00DB11DAA1F649F6627B00DA11DD0
:1020A000661F829F2227B00DA11D621F739FB00D76
:1020B000A11D621F839FA00D611D221F749F3327E6
:1020C000A00D611D231F849F600D211D822F762F7F
:1020D0006A2F11249F5750408AF0E1F088234AF07C
:1020E000EE0FFF1FBB1F661F771F881F91505040C8
:1020F000A9F79E3F510570F05CCFA6CF5F3FECF390
:10210000983EDCF3869577956795B795F795E795B3
:102110009F5FC1F7FE2B880F911D9695879597F9C4
:102120000895FA01EE0FFF1F30962105310599F150
:102130006115710561F48038BFE39B0749F168942C
:102140009038810561F08038BFEF9B0741F09923FB
:1021500042F5FF3FE1053105210511F1E8940894AE
:10216000E795D901AA2329F4AB2FBE2FF85FD0F34E
:1021700010C0FF5F70F4A695E0F7F73950F019F042
:10218000FF3A38F49F779F930CD00F9007FC90583C
:1021900008953EF014CF60E070E080E89FE308957A
:1021A0004FE79F775F934F933F932F939ED02F914D
:1021B0003F914F915F9152DF05C019F40EF0F9CEB7
:1021C00042CFFDCE26DFC8F39638C0F707F80F924E
:1021D000E8942BE33AEA48EB5FE74EDF0F920F9269
:1021E0000F924DB75EB70F92C0D0E8E6F0E016D080
:1021F0004F915F91EF91FF91E595EE1FFF1F49F021
:10220000FE57E0684427EE0F441FFA95E1F7419529
:10221000550B32D00F9007FE26C00895DF93CF9361
:102220001F930F93FF92EF92DF927B018C016894D2
:1022300005C0DA2EEF011EDFFE01E894A59125917D
:10224000359145915591AEF3EF016BDDFE0197019C
:10225000A801DA9479F7DF90EF90FF900F911F912A
:10226000CF91DF9108959B01AC0160E070E080E8C0
:102270009FE3AACD9ECEACC0CCDEE8F39923D9F380
:10228000940F511DBBF39150504094F059F08823A6
:1022900032F0660F771F881F91505040C1F79E3F64
:1022A000510544F7880F911D9695879597F90895E4
:1022B0005F3FACF0983E9CF0BB278695779567957D
:1022C000B79508F4B1609395C1F7BB0F58F711F4B7
:1022D00060FFE8CF6F5F7F4F8F4F9F4FE3CFB4CE4C
:1022E0000EF076C06CCE689464CE93DEC8F399236A
:1022F000D1F3C6F3DF93CF931F930F93FF92C92FB0
:10230000DD2788232AF02197660F771F881FDAF7C9
:1023100020E030E040E85FEB9FE3883920F0803E2A
:1023200030F021968F77ECDCE0E9F0E003C0E8DCE8
:10233000EDEBF0E073DF8B01BE01EC01FB2E6F577C
:1023400071097595771F880B990BD4DD28E132E769
:1023500041E35FE38FDEAF2D9801AE01FF900F9157
:102360001F91CF91DF91DDDC3BCEFA01DC01AA0F9A
:10237000BB1F9B01AC01BF5728F4222733274427FA
:1023800050781FC0B75188F4AB2F0024469537957D
:102390002795011CA395D2F3002069F0220F331F6B
:1023A000441FB395DAF30DD0AACC61307105A0E8D3
:1023B0008A07B94630F49B01AC0166277727882746
:1023C0009078309621F0208331834283538308959F
:1023D0009F3F31F0915020F4879577956795B79599
:1023E000880F911D9695879597F90895DB018F9336
:1023F0009F930E945312BF91AF91A29F800D911D98
:10240000A39F900DB29F900D11240895991B79E020
:1024100004C0991F961708F0961B881F7A95C9F774
:1024200080950895A1E21A2EAA1BBB1BFD010DC0C9
:10243000AA1FBB1FEE1FFF1FA217B307E407F50774
:1024400020F0A21BB30BE40BF50B661F771F881F50
:10245000991F1A9469F760957095809590959B01E6
:10246000AC01BD01CF010895052E97FB1EF4009429
:102470000E944B1257FD07D00E94121207FC03D096
:102480004EF40C944B1250954095309521953F4F4A
:102490004F4F5F4F089590958095709561957F4F50
:1024A0008F4F9F4F08950E946412A59F900DB49F77
:1024B000900DA49F800D911D11240895EE0FFF1F14
:1024C0000590F491E02D0994A29FB001B39FC00143
:1024D000A39F700D811D1124911DB29F700D811D50
:0A24E0001124911D0895F894FFCF18
:1024EA0001000000B0040F001300120011001000D8
:1024FA0008000D000700000000009E097109460946
:06250A004E096109700991
:00000001FF
